{
  "_format": "hh-sol-artifact-1",
  "contractName": "FamilyWallet",
  "sourceName": "contracts/FamilyWalletContract.sol",
  "abi": [
    {
      "inputs": [
        {
          "internalType": "string",
          "name": "_name",
          "type": "string"
        },
        {
          "internalType": "uint256",
          "name": "_dayLimit",
          "type": "uint256"
        }
      ],
      "stateMutability": "nonpayable",
      "type": "constructor"
    },
    {
      "inputs": [
        {
          "internalType": "address",
          "name": "_child",
          "type": "address"
        }
      ],
      "name": "addChild",
      "outputs": [],
      "stateMutability": "nonpayable",
      "type": "function"
    },
    {
      "inputs": [],
      "name": "addMoney",
      "outputs": [],
      "stateMutability": "payable",
      "type": "function"
    },
    {
      "inputs": [
        {
          "internalType": "address",
          "name": "_parent",
          "type": "address"
        }
      ],
      "name": "addParent",
      "outputs": [],
      "stateMutability": "nonpayable",
      "type": "function"
    },
    {
      "inputs": [
        {
          "internalType": "uint256",
          "name": "",
          "type": "uint256"
        }
      ],
      "name": "childList",
      "outputs": [
        {
          "internalType": "address",
          "name": "",
          "type": "address"
        }
      ],
      "stateMutability": "view",
      "type": "function"
    },
    {
      "inputs": [
        {
          "internalType": "address",
          "name": "",
          "type": "address"
        }
      ],
      "name": "children",
      "outputs": [
        {
          "internalType": "uint256",
          "name": "",
          "type": "uint256"
        }
      ],
      "stateMutability": "view",
      "type": "function"
    },
    {
      "inputs": [],
      "name": "dayLimit",
      "outputs": [
        {
          "internalType": "uint256",
          "name": "",
          "type": "uint256"
        }
      ],
      "stateMutability": "view",
      "type": "function"
    },
    {
      "inputs": [],
      "name": "deployDate",
      "outputs": [
        {
          "internalType": "uint256",
          "name": "",
          "type": "uint256"
        }
      ],
      "stateMutability": "view",
      "type": "function"
    },
    {
      "inputs": [],
      "name": "getChildren",
      "outputs": [
        {
          "internalType": "address[]",
          "name": "",
          "type": "address[]"
        }
      ],
      "stateMutability": "view",
      "type": "function"
    },
    {
      "inputs": [],
      "name": "getParents",
      "outputs": [
        {
          "internalType": "address[]",
          "name": "",
          "type": "address[]"
        }
      ],
      "stateMutability": "view",
      "type": "function"
    },
    {
      "inputs": [],
      "name": "getWalletBalance",
      "outputs": [
        {
          "internalType": "uint256",
          "name": "",
          "type": "uint256"
        }
      ],
      "stateMutability": "view",
      "type": "function"
    },
    {
      "inputs": [],
      "name": "getWithdrawAmount",
      "outputs": [
        {
          "internalType": "uint256",
          "name": "",
          "type": "uint256"
        }
      ],
      "stateMutability": "view",
      "type": "function"
    },
    {
      "inputs": [
        {
          "internalType": "uint256",
          "name": "",
          "type": "uint256"
        }
      ],
      "name": "parentList",
      "outputs": [
        {
          "internalType": "address",
          "name": "",
          "type": "address"
        }
      ],
      "stateMutability": "view",
      "type": "function"
    },
    {
      "inputs": [
        {
          "internalType": "address",
          "name": "",
          "type": "address"
        }
      ],
      "name": "parents",
      "outputs": [
        {
          "internalType": "uint256",
          "name": "",
          "type": "uint256"
        }
      ],
      "stateMutability": "view",
      "type": "function"
    },
    {
      "inputs": [
        {
          "internalType": "uint256",
          "name": "_limit",
          "type": "uint256"
        }
      ],
      "name": "setDayLimitParent",
      "outputs": [],
      "stateMutability": "nonpayable",
      "type": "function"
    },
    {
      "inputs": [],
      "name": "walletName",
      "outputs": [
        {
          "internalType": "string",
          "name": "",
          "type": "string"
        }
      ],
      "stateMutability": "view",
      "type": "function"
    },
    {
      "inputs": [],
      "name": "walletOwner",
      "outputs": [
        {
          "internalType": "address",
          "name": "",
          "type": "address"
        }
      ],
      "stateMutability": "view",
      "type": "function"
    },
    {
      "inputs": [
        {
          "internalType": "address payable",
          "name": "_to",
          "type": "address"
        },
        {
          "internalType": "uint256",
          "name": "_total",
          "type": "uint256"
        }
      ],
      "name": "withdrawMoney",
      "outputs": [],
      "stateMutability": "payable",
      "type": "function"
    }
  ],
  "bytecode": "0x60806040523480156200001157600080fd5b5060405162001ec938038062001ec98339818101604052810190620000379190620001e0565b81600090805190602001906200004f929190620000a7565b5033600160006101000a81548173ffffffffffffffffffffffffffffffffffffffff021916908373ffffffffffffffffffffffffffffffffffffffff160217905550426003819055508060028190555050506200038f565b828054620000b590620002e1565b90600052602060002090601f016020900481019282620000d9576000855562000125565b82601f10620000f457805160ff191683800117855562000125565b8280016001018555821562000125579182015b828111156200012457825182559160200191906001019062000107565b5b50905062000134919062000138565b5090565b5b808211156200015357600081600090555060010162000139565b5090565b60006200016e62000168846200026e565b6200023a565b9050828152602081018484840111156200018757600080fd5b62000194848285620002ab565b509392505050565b600082601f830112620001ae57600080fd5b8151620001c084826020860162000157565b91505092915050565b600081519050620001da8162000375565b92915050565b60008060408385031215620001f457600080fd5b600083015167ffffffffffffffff8111156200020f57600080fd5b6200021d858286016200019c565b92505060206200023085828601620001c9565b9150509250929050565b6000604051905081810181811067ffffffffffffffff8211171562000264576200026362000346565b5b8060405250919050565b600067ffffffffffffffff8211156200028c576200028b62000346565b5b601f19601f8301169050602081019050919050565b6000819050919050565b60005b83811015620002cb578082015181840152602081019050620002ae565b83811115620002db576000848401525b50505050565b60006002820490506001821680620002fa57607f821691505b6020821081141562000311576200031062000317565b5b50919050565b7f4e487b7100000000000000000000000000000000000000000000000000000000600052602260045260246000fd5b7f4e487b7100000000000000000000000000000000000000000000000000000000600052604160045260246000fd5b6200038081620002a1565b81146200038c57600080fd5b50565b611b2a806200039f6000396000f3fe6080604052600436106100fe5760003560e01c806338540d1911610095578063acf36e5311610064578063acf36e5314610318578063cf8d8ca014610341578063dd6133b51461036c578063f0018da714610397578063f274c897146103d4576100fe565b806338540d191461025a5780634892e8e81461028557806369668fe9146102b0578063890b00d9146102db576100fe565b80631b3f4842116100d15780631b3f4842146101bf5780631eee993a146101c9578063329a27e7146101f257806332a19d171461021d576100fe565b8063027932f91461010357806307b1fa1b1461012e57806318b13fb2146101575780631ae879e814610194575b600080fd5b34801561010f57600080fd5b506101186103f0565b60405161012591906117d9565b60405180910390f35b34801561013a57600080fd5b506101556004803603810190610150919061108b565b610419565b005b34801561016357600080fd5b5061017e60048036038101906101799190611026565b6104b3565b60405161018b91906117d9565b60405180910390f35b3480156101a057600080fd5b506101a96104cb565b6040516101b691906115da565b60405180910390f35b6101c76104f1565b005b3480156101d557600080fd5b506101f060048036038101906101eb9190611026565b6105b9565b005b3480156101fe57600080fd5b50610207610805565b60405161021491906117d9565b60405180910390f35b34801561022957600080fd5b50610244600480360381019061023f919061108b565b6108d8565b60405161025191906115da565b60405180910390f35b34801561026657600080fd5b5061026f610917565b60405161027c91906117d9565b60405180910390f35b34801561029157600080fd5b5061029a61091d565b6040516102a791906115f5565b60405180910390f35b3480156102bc57600080fd5b506102c56109ab565b6040516102d291906117d9565b60405180910390f35b3480156102e757600080fd5b5061030260048036038101906102fd919061108b565b6109b1565b60405161030f91906115da565b60405180910390f35b34801561032457600080fd5b5061033f600480360381019061033a9190611026565b6109f0565b005b34801561034d57600080fd5b50610356610c2f565b6040516103639190611617565b60405180910390f35b34801561037857600080fd5b50610381610cbd565b60405161038e91906115f5565b60405180910390f35b3480156103a357600080fd5b506103be60048036038101906103b99190611026565b610d4b565b6040516103cb91906117d9565b60405180910390f35b6103ee60048036038101906103e9919061104f565b610d63565b005b6000806103fb610eda565b90506000479050808211156104105780610412565b815b9250505090565b600160009054906101000a900473ffffffffffffffffffffffffffffffffffffffff1673ffffffffffffffffffffffffffffffffffffffff163373ffffffffffffffffffffffffffffffffffffffff16146104a9576040517f08c379a00000000000000000000000000000000000000000000000000000000081526004016104a090611699565b60405180910390fd5b8060028190555050565b60046020528060005260406000206000915090505481565b600160009054906101000a900473ffffffffffffffffffffffffffffffffffffffff1681565b6000341415610535576040517f08c379a000000000000000000000000000000000000000000000000000000000815260040161052c90611659565b60405180910390fd5b6000600460003373ffffffffffffffffffffffffffffffffffffffff1673ffffffffffffffffffffffffffffffffffffffff16815260200190815260200160002054116105b7576040517f08c379a00000000000000000000000000000000000000000000000000000000081526004016105ae906116f9565b60405180910390fd5b565b600160009054906101000a900473ffffffffffffffffffffffffffffffffffffffff1673ffffffffffffffffffffffffffffffffffffffff163373ffffffffffffffffffffffffffffffffffffffff1614610649576040517f08c379a000000000000000000000000000000000000000000000000000000000815260040161064090611719565b60405180910390fd5b6000600560008373ffffffffffffffffffffffffffffffffffffffff1673ffffffffffffffffffffffffffffffffffffffff16815260200190815260200160002054146106cb576040517f08c379a00000000000000000000000000000000000000000000000000000000081526004016106c290611779565b60405180910390fd5b6000600460008373ffffffffffffffffffffffffffffffffffffffff1673ffffffffffffffffffffffffffffffffffffffff168152602001908152602001600020541461074d576040517f08c379a000000000000000000000000000000000000000000000000000000000815260040161074490611799565b60405180910390fd5b600160025461075c9190611849565b600560008373ffffffffffffffffffffffffffffffffffffffff1673ffffffffffffffffffffffffffffffffffffffff168152602001908152602001600020819055506007819080600181540180825580915050600190039060005260206000200160009091909190916101000a81548173ffffffffffffffffffffffffffffffffffffffff021916908373ffffffffffffffffffffffffffffffffffffffff16021790555050565b600080600560003373ffffffffffffffffffffffffffffffffffffffff1673ffffffffffffffffffffffffffffffffffffffff16815260200190815260200160002054118061089357506000600460003373ffffffffffffffffffffffffffffffffffffffff1673ffffffffffffffffffffffffffffffffffffffff16815260200190815260200160002054115b6108d2576040517f08c379a00000000000000000000000000000000000000000000000000000000081526004016108c990611639565b60405180910390fd5b47905090565b600681815481106108e857600080fd5b906000526020600020016000915054906101000a900473ffffffffffffffffffffffffffffffffffffffff1681565b60025481565b606060078054806020026020016040519081016040528092919081815260200182805480156109a157602002820191906000526020600020905b8160009054906101000a900473ffffffffffffffffffffffffffffffffffffffff1673ffffffffffffffffffffffffffffffffffffffff1681526020019060010190808311610957575b5050505050905090565b60035481565b600781815481106109c157600080fd5b906000526020600020016000915054906101000a900473ffffffffffffffffffffffffffffffffffffffff1681565b600160009054906101000a900473ffffffffffffffffffffffffffffffffffffffff1673ffffffffffffffffffffffffffffffffffffffff163373ffffffffffffffffffffffffffffffffffffffff1614610a80576040517f08c379a0000000000000000000000000000000000000000000000000000000008152600401610a7790611719565b60405180910390fd5b6000600460008373ffffffffffffffffffffffffffffffffffffffff1673ffffffffffffffffffffffffffffffffffffffff1681526020019081526020016000205414610b02576040517f08c379a0000000000000000000000000000000000000000000000000000000008152600401610af9906117b9565b60405180910390fd5b6000600560008373ffffffffffffffffffffffffffffffffffffffff1673ffffffffffffffffffffffffffffffffffffffff1681526020019081526020016000205414610b84576040517f08c379a0000000000000000000000000000000000000000000000000000000008152600401610b7b90611679565b60405180910390fd5b6001600460008373ffffffffffffffffffffffffffffffffffffffff1673ffffffffffffffffffffffffffffffffffffffff168152602001908152602001600020819055506006819080600181540180825580915050600190039060005260206000200160009091909190916101000a81548173ffffffffffffffffffffffffffffffffffffffff021916908373ffffffffffffffffffffffffffffffffffffffff16021790555050565b60008054610c3c906119df565b80601f0160208091040260200160405190810160405280929190818152602001828054610c68906119df565b8015610cb55780601f10610c8a57610100808354040283529160200191610cb5565b820191906000526020600020905b815481529060010190602001808311610c9857829003601f168201915b505050505081565b60606006805480602002602001604051908101604052809291908181526020018280548015610d4157602002820191906000526020600020905b8160009054906101000a900473ffffffffffffffffffffffffffffffffffffffff1673ffffffffffffffffffffffffffffffffffffffff1681526020019060010190808311610cf7575b5050505050905090565b60056020528060005260406000206000915090505481565b6000610d6d610eda565b905060008111610db2576040517f08c379a0000000000000000000000000000000000000000000000000000000008152600401610da9906116b9565b60405180910390fd5b81811015610df5576040517f08c379a0000000000000000000000000000000000000000000000000000000008152600401610dec90611759565b60405180910390fd5b47821115610e38576040517f08c379a0000000000000000000000000000000000000000000000000000000008152600401610e2f90611739565b60405180910390fd5b81600560003373ffffffffffffffffffffffffffffffffffffffff1673ffffffffffffffffffffffffffffffffffffffff1681526020019081526020016000206000828254610e879190611849565b925050819055508273ffffffffffffffffffffffffffffffffffffffff166108fc839081150290604051600060405180830381858888f19350505050158015610ed4573d6000803e3d6000fd5b50505050565b600080600560003373ffffffffffffffffffffffffffffffffffffffff1673ffffffffffffffffffffffffffffffffffffffff1681526020019081526020016000205411610f5d576040517f08c379a0000000000000000000000000000000000000000000000000000000008152600401610f54906116d9565b60405180910390fd5b60006201518060035442610f71919061192a565b610f7b919061189f565b90506001600560003373ffffffffffffffffffffffffffffffffffffffff1673ffffffffffffffffffffffffffffffffffffffff1681526020019081526020016000205460025483610fcd91906118d0565b610fd7919061192a565b610fe1919061192a565b91505090565b600081359050610ff681611aaf565b92915050565b60008135905061100b81611ac6565b92915050565b60008135905061102081611add565b92915050565b60006020828403121561103857600080fd5b600061104684828501610fe7565b91505092915050565b6000806040838503121561106257600080fd5b600061107085828601610ffc565b925050602061108185828601611011565b9150509250929050565b60006020828403121561109d57600080fd5b60006110ab84828501611011565b91505092915050565b60006110c083836110cc565b60208301905092915050565b6110d58161195e565b82525050565b6110e48161195e565b82525050565b60006110f582611804565b6110ff8185611827565b935061110a836117f4565b8060005b8381101561113b57815161112288826110b4565b975061112d8361181a565b92505060018101905061110e565b5085935050505092915050565b60006111538261180f565b61115d8185611838565b935061116d8185602086016119ac565b61117681611a9e565b840191505092915050565b600061118e601c83611838565b91507f596f7520617265206e6f742066726f6d20746869732066616d696c79000000006000830152602082019050919050565b60006111ce602983611838565b91507f596f75206e65656420746f206465706f73697420736f6d6520616d6f756e742060008301527f6f66206d6f6e65792100000000000000000000000000000000000000000000006020830152604082019050919050565b6000611234602a83611838565b91507f4164647265737320697320616c726561647920696e20746865206c697374206f60008301527f66206368696c6472656e000000000000000000000000000000000000000000006020830152604082019050919050565b600061129a601583611838565b91507f596f75206d75737420626520746865206f776e657200000000000000000000006000830152602082019050919050565b60006112da601783611838565b91507f4461696c79207370656e64696e672065786365656465640000000000000000006000830152602082019050919050565b600061131a601e83611838565b91507f416464726573732069736e277420696e206368696c6472656e206c69737400006000830152602082019050919050565b600061135a602583611838565b91507f596f75206e65656420746f20626520696e20746865206c697374206f6620706160008301527f72656e74730000000000000000000000000000000000000000000000000000006020830152604082019050919050565b60006113c0602383611838565b91507f596f75206d75737420626520746865206f776e657220746f206164642070617260008301527f656e7400000000000000000000000000000000000000000000000000000000006020830152604082019050919050565b6000611426601a83611838565b91507f4e6f7420656e6f756768206d6f6e657920696e2077616c6c65740000000000006000830152602082019050919050565b6000611466601c83611838565b91507f4e6f7420656e6f756768206d6f6e657920746f207769746864726177000000006000830152602082019050919050565b60006114a6602883611838565b91507f4368696c6420697320616c726561647920696e20746865206c697374206f662060008301527f6368696c6472656e0000000000000000000000000000000000000000000000006020830152604082019050919050565b600061150c602983611838565b91507f4164647265737320697320616c726561647920696e20746865206c697374206f60008301527f6620706172656e747300000000000000000000000000000000000000000000006020830152604082019050919050565b6000611572602883611838565b91507f506172656e7420697320616c726561647920696e20746865206c697374206f6660008301527f20706172656e74730000000000000000000000000000000000000000000000006020830152604082019050919050565b6115d4816119a2565b82525050565b60006020820190506115ef60008301846110db565b92915050565b6000602082019050818103600083015261160f81846110ea565b905092915050565b600060208201905081810360008301526116318184611148565b905092915050565b6000602082019050818103600083015261165281611181565b9050919050565b60006020820190508181036000830152611672816111c1565b9050919050565b6000602082019050818103600083015261169281611227565b9050919050565b600060208201905081810360008301526116b28161128d565b9050919050565b600060208201905081810360008301526116d2816112cd565b9050919050565b600060208201905081810360008301526116f28161130d565b9050919050565b600060208201905081810360008301526117128161134d565b9050919050565b60006020820190508181036000830152611732816113b3565b9050919050565b6000602082019050818103600083015261175281611419565b9050919050565b6000602082019050818103600083015261177281611459565b9050919050565b6000602082019050818103600083015261179281611499565b9050919050565b600060208201905081810360008301526117b2816114ff565b9050919050565b600060208201905081810360008301526117d281611565565b9050919050565b60006020820190506117ee60008301846115cb565b92915050565b6000819050602082019050919050565b600081519050919050565b600081519050919050565b6000602082019050919050565b600082825260208201905092915050565b600082825260208201905092915050565b6000611854826119a2565b915061185f836119a2565b9250827fffffffffffffffffffffffffffffffffffffffffffffffffffffffffffffffff0382111561189457611893611a11565b5b828201905092915050565b60006118aa826119a2565b91506118b5836119a2565b9250826118c5576118c4611a40565b5b828204905092915050565b60006118db826119a2565b91506118e6836119a2565b9250817fffffffffffffffffffffffffffffffffffffffffffffffffffffffffffffffff048311821515161561191f5761191e611a11565b5b828202905092915050565b6000611935826119a2565b9150611940836119a2565b92508282101561195357611952611a11565b5b828203905092915050565b600061196982611982565b9050919050565b600061197b82611982565b9050919050565b600073ffffffffffffffffffffffffffffffffffffffff82169050919050565b6000819050919050565b60005b838110156119ca5780820151818401526020810190506119af565b838111156119d9576000848401525b50505050565b600060028204905060018216806119f757607f821691505b60208210811415611a0b57611a0a611a6f565b5b50919050565b7f4e487b7100000000000000000000000000000000000000000000000000000000600052601160045260246000fd5b7f4e487b7100000000000000000000000000000000000000000000000000000000600052601260045260246000fd5b7f4e487b7100000000000000000000000000000000000000000000000000000000600052602260045260246000fd5b6000601f19601f8301169050919050565b611ab88161195e565b8114611ac357600080fd5b50565b611acf81611970565b8114611ada57600080fd5b50565b611ae6816119a2565b8114611af157600080fd5b5056fea264697066735822122043350a579240f15dfeb57b859a746ca6a43b3b0e50144a40760ae7dda1d2008664736f6c63430008000033",
  "linkReferences": {},
  "deployedLinkReferences": {}
}